:020000040800F2
:10000000D0400020DD0100085F130008B91200088D
:100010005D130008E9020008DF1700080000000077
:100020000000000000000000000000009114000823
:100030009D030008000000008113000893140008CD
:10004000F7010008F7010008F7010008F7010008B0
:10005000F7010008F7010008F7010008F7010008A0
:10006000F7010008F7010008F7010008F701000890
:10007000F7010008F7010008F7010008F701000880
:10008000F7010008F7010008F70100080000000070
:10009000000000000000000000000000F701000860
:1000A000F7010008F7010008F7010008F701000850
:1000B000000000000000000000000000F701000840
:1000C000F7010008F7010008F7010008F701000830
:1000D000F7010008F7010008F70100080000000020
:1000E000F7010008F7010008000000000000000010
:1000F000000000000000000000000000F701000800
:100100000000000000000000F701000800000000EF
:100110000000000000000000F701000800000000DF
:10012000F7010008ED020008F7010008F7010008D8
:10013000F7010008000000000000000000000000BF
:1001400000000000000000000000000000000000AF
:10015000F7010008F7010008F7010008F70100089F
:10016000000000000000000000000000000000008F
:10017000000000000000000000000000000000007F
:10018000F7010008F701000800000000000000006F
:1001900000000000F701000800000000000000005F
:1001A000000000000000000000000000000000004F
:1001B000000000000000000000000000F70100083F
:1001C000F7010008F7010008DFF80CD000F07AF81A
:1001D0000048004701180008D0400020064880472A
:1001E00006480047FEE7FEE7FEE7FEE7FEE7FEE71C
:1001F000FEE7FEE7FEE7FEE71D150008C90100085F
:100200002DE9F05F0546002092469B46884606464B
:10021000814640241BE0284641464746224600F0DE
:1002200041F853465A46C01A914110D31146184618
:10023000224600F028F82D1A67EB01084F462246A7
:100240000120002100F01FF817EB00094E41201E8D
:10025000A4F10104DFDC484631462A464346BDE8A6
:10026000F09FD2B201E000F8012B491EFBD270478B
:100270000022F6E710B513460A4604461946FFF772
:10028000F0FF204610BD202A04DB203A00FA02F1DC
:10029000002070479140C2F1200320FA03F3194374
:1002A00090407047202A04DB203A21FA02F0002116
:1002B000704721FA02F3D040C2F120029140084376
:1002C00019467047064C074D06E0E06840F0010310
:1002D00094E8070098471034AC42F6D3FFF778FF54
:1002E0001C1A00083C1A0008FEE70000014800F054
:1002F00057B800006C3C002001681823CAB2103ABD
:10030000B2FBF3F2054B6FF30901032A9B5CC36553
:1003100000D9091D8165084670470000031A0008CE
:1003200010B5014600208B698A6A4FF0C07453B142
:10033000B3F5005F15D072B1012A0CD0022A0AD0A1
:10034000032A09D104E01AB1012A06D0022A03D1F6
:10035000C96AC90100D5012010BDC96AA142FAD0FD
:1003600010BD002AF7D0012AF2D0022AF3D0032AC6
:10037000F3D010BD30B50468256825F480252560CC
:10038000046863608368402B036803D09960006849
:10039000C26030BD9A600068C16030BD7047704770
:1003A0002DE9F84304464FF00009CDF8009063486A
:1003B0004FF41651A56D0068B0FBF1F72E6894F864
:1003C0005C10082000FA01F131420FD021680A6860
:1003D00052070BD50A6822F004020A6094F85C10F8
:1003E0008840A860606D40F00100606594F85C1082
:1003F0004FF0010808FA01F0304208D0216849693D
:10040000090604D5A860606D40F00200606594F8AC
:100410005C1004208840304208D0216809688907B0
:1004200004D5A860606D40F00400606594F85C102D
:1004300010208840304218D021680968090714D577
:10044000A86020680168490304D50068000308D546
:10045000A16C07E00168C90503D4016821F0080117
:100460000160216C09B12046884794F85C10202077
:100470008840304231D021680968C9062DD5A8606E
:1004800094F8350005282068016806D0490347D54F
:10049000006800031DD4616C1CE021F016010160AE
:1004A0002068416921F080014161206C08B9A06C8D
:1004B00020B12068016821F00801016094F85C1007
:1004C0003F208840A86084F8349084F83580216DFE
:1004D0001FE0E16B09B120468847606D00282BD0F2
:1004E000606DC00714D0052084F8350020680168CD
:1004F00021F0010101600098401C0090B84203D82F
:1005000020680068C007F6D184F8349084F83580FC
:10051000E16C002910D001B02046BDE8F043084747
:100520000168C905D5D4016821F01001016084F883
:10053000349084F83580CCE7BDE8F8830C000020C7
:100540002DE9F041044600F069F906465CB100254A
:1005500084F83450022084F835002068016821F0C6
:10056000010101600DE00120BDE8F08100F056F9C5
:10057000801B052805D920206065032084F83500FC
:10058000F2E720680068C007F0D1226811682048AF
:100590000140D4E901031843D4E903363343184337
:1005A00063691843A3691843E3691843236A18432E
:1005B0000843616A042903D1D4E90B1319430843A2
:1005C000106020684069666A20F0070130460E43DB
:1005D000012704280CD1A06A0643E06A40B12046F6
:1005E000FFF79EFE20B14020606584F83570BAE7C1
:1005F000206846612046FFF77FFE94F85C203F218B
:1006000091408160656584F835700020ACE700009A
:100610003F8010F02DE9F0410446866D90F83400DB
:10062000002501280DD0012084F8340094F835709D
:100630000020012F07D084F8340002252846BDE8A9
:10064000F0810220FBE7022784F8357060652046C0
:10065000FFF790FE94F85C103F208840B06020685F
:10066000016841F0160101602068416941F0800194
:100670004161206C20B12068016841F008010160EF
:100680002068016841F001010160D7E770B50446B8
:1006900000F0C4F80546601C02D004480078044409
:1006A00000F0BCF8401BA042FAD370BD000000204F
:1006B0002DE9F84FDFF84CB100224FF001084FF060
:1006C000030A4FF00F090BF1040E00BF0B6808FA84
:1006D00002F42340A3427DD14D68022D01D0122D9A
:1006E0000ED1D50800EB850CDCF820505607F70E2C
:1006F00009FA07F6B5430E69BE402E43CCF82060D8
:10070000066855000F790AFA05FC07F0030726EA88
:100710000C06AF40374307604E68012E05D0022E0D
:1007200003D0112E01D0122E0ED18768CE6827EA91
:100730000C07AE403E4386604668A6430C79C4F37E
:100740000014944034434460C4688E6824EA0C0466
:10075000AE402643C6604C68E4004DD52A4C25685F
:1007600045F480452560246822F0030504F48044A4
:100770000094264C2E19D6F8084895072F0F09FA31
:1007800007F5AC43224DA84201D100250AE0214DD6
:10079000A84201D1012505E01F4DA84201D1022543
:1007A00000E00725BD402543C6F80858DBF80040A7
:1007B0005D464E689C43F60300D51C432C60DEF872
:1007C000004075464E689C43B60300D51C432C6020
:1007D0000C4D00E010E008352C684E689C43F60292
:1007E00000D51C432C60074D0C352C684E689C438B
:1007F000B60200D51C432C60521C102AFFF466AFD1
:10080000BDE8F88F003C0140443802400030014010
:1008100000000240000402400008024001488068D5
:1008200070470000000000200248816802781144EF
:1008300081607047000000200B4810B5016841F44A
:1008400000710160016841F480610160016841F458
:1008500080710160032000F06DF8002000F006F8C0
:1008600000F024F8002010BD003C024070B50D4D92
:1008700004464FF47A712878B1FBF0F00A49096810
:10088000B1FBF0F000F0C4FA48B9102C07D20022F6
:100890002146501E00F02EF800206C6070BD012033
:1008A00070BD0000000000200C0000200A4808B5C0
:1008B000016841F480410160006800F480400090CC
:1008C0000548001F016841F080510160006800F098
:1008D0008050009008BD00004438024000F01F0224
:1008E000012191404009800000F1E020C0F8001192
:1008F00070470000F0B40E4B1B680C46C3F3022394
:10090000C3F10705042D00D90425191D072901D2BB
:10091000002300E0DB1E012606FA05F1491E2140F6
:1009200099409E40761E16403143F0BC00F018BD41
:100930000CED00E0064900F0070208684FF6FF03DF
:10094000184040EA0220034A104308607047000044
:100950000CED00E00000FA052DE9F0470E46050019
:1009600065D0DFF81481D8F80000F7B200F00F006E
:10097000B04207D288F80070D8F8000000F00F00ED
:10098000B04254D128683D4C810712D5400703D5A9
:10099000206840F4E05020602878000703D52068E4
:1009A00040F4604020602068A96820F0F00008430F
:1009B00020602878C0072DD03049686808390128A0
:1009C00012D0022813D0032811D009688907002902
:1009D0002DDA216821F0030101432160FFF71EFF9A
:1009E000814641F2883A0EE009688903EFE7096819
:1009F0008901ECE7FFF712FFA0EB0901514502D98D
:100A00000320BDE8F0872068696800F00C00B0EBB7
:100A1000810FEFD1D8F80010404601F00F01B1422C
:100A200007D90770006800F00F00B04201D0012024
:100A3000E7E72878400705D52068E96820F4E0500A
:100A4000084320602878000706D52068296920F42B
:100A5000604040EAC100206000F016F82168084AB2
:100A6000C1F30311515CC840064908600020FFF73C
:100A7000FDFE0020C5E70000003C024008380240AF
:100A80000B1A00080C000020154810B5006810F083
:100A90000C02144813D01449042A0FD0082A0ED18E
:100AA0000F4C241F2268236802F03F025B0207D527
:100AB0002068C0F38810A0FB010106E0084610BDC5
:100AC0002168C1F38811A1FB00010023FFF798FB07
:100AD0002168C1F30141491C4900B0FBF1F010BD90
:100AE000083802400024F40040787D012DE9F84FD9
:100AF00005460078DFF800B3C04CC0074AD0DBF8E9
:100B000000105846C1F38101012908D00068C0F3E4
:100B1000810002280AD1201D0068400206D5206805
:100B2000800337D56868002872D033E06868B0F574
:100B3000803F10D0B0F5A02F206810D020F4803076
:100B40002060206820F4802020606868A8B1FFF74A
:100B500065FE06460DE0206840F48030F4E740F47E
:100B600080202060F7E700BFFFF758FE801B642855
:100B70006FD820688003F7D50CE0FFF74FFE0646DC
:100B800005E000BFFFF74AFE801B6428F0D820680C
:100B90008003F7D42878DFF8688280074FF00009D7
:100BA00040D5DBF80010584611F00C0F09D0006852
:100BB000C0F3810002280BD18F48001F006840025B
:100BC00006D42068800715D5E868012820D111E0F7
:100BD000E868B8B10120C8F80000FFF71FFE06461C
:100BE00005E000BFFFF71AFE801B0228C0D820686E
:100BF0008007F7D52068296920F0F80040EAC10095
:100C000020600FE0C8F80090FFF708FE064606E0F7
:100C1000EFE000BFFFF702FE801B022819D8206812
:100C20008007F7D42878000722D5734E7548696984
:100C30006C3679B101210160FFF7F0FD074604E051
:100C4000FFF7ECFDC01B022803D830688007F7D5FA
:100C50000EE089E0C0F80090FFF7E0FD074604E0F1
:100C6000FFF7DCFDC01B02287ED830688007F7D470
:100C70002878400768D5DFF880A100270AF1380AF4
:100C8000DAF80000C0000BD4DAF8001041F080510F
:100C9000CAF80010DAF80000012700F08050009038
:100CA000594E3068C00510D4306840F48070306010
:100CB000FFF7B4FD009005E0FFF7B0FD0099401A82
:100CC000022851D83068C005F6D54B4EA868683662
:100CD00001280FD00528306810D020F001003060C6
:100CE000306820F004003060A868B8B1FFF796FDC6
:100CF00000900FE0306840F00100F4E740F004009D
:100D00003060F7E7FFF78AFD0099411A41F2883019
:100D1000814266D830688007F4D50EE0FFF77EFD8B
:100D2000009007E0FFF77AFD0099411A41F2883000
:100D3000814256D830688007F4D42FB1DAF8001019
:100D400021F08051CAF80010A869D0B3DBF8001078
:100D5000C1F3810102294CD00228484607D0C8F8C7
:100D60006000FFF75BFD00E03BE005463CE04746E6
:100D7000C8F86000FFF752FD064604E0FFF74EFD9D
:100D8000801B02282DD820688001F7D4F5E90701DF
:100D90000843E9681D4A490802EB0141AA6841EA93
:100DA00082110843297C40EA0160297D40EA0171F3
:100DB0001148001F016001203866FFF72FFD05462E
:100DC00005E014E0FFF72AFD401B022809D820683F
:100DD0008001F7D50BE000BFFFF720FD401B022884
:100DE00002D90320BDE8F88F20688001F4D40020E8
:100DF000F8E70120F6E7000008380240003802401A
:100E000000004742800E4742007000400000FFFF94
:100E100010B5401EB0F1807F01D3012010BD4FF00E
:100E2000E02460610F21601700F09AFA0020A061B1
:100E300007202061002010BD10B590F83820012A4D
:100E400025D0012280F83820CA688C6822F44072CC
:100E500022434C6822F4806222430C6822F4006230
:100E600022430C6922F4805222434C6922F400523E
:100E700022438C6922F48042224322F4004102681A
:100E800000232143516480F83830002010BD022037
:100E900010BD30B590F83820012A20D0012280F80A
:100EA0003820022380F8393003685C6824F070042D
:100EB0005C6003685C680D682C435C6003689C6838
:100EC00024F080049C6003689C6849680C439C6023
:100ED00080F83920002180F83810084630BD022003
:100EE00030BD10B5040003D094F8390010B107E00C
:100EF000012010BD002084F83800204600F00CF8D6
:100F0000022084F83900211D206800F031FB012007
:100F100084F83900002010BD38B505460068144932
:100F2000884224D1134900200A6842F001020A6075
:100F30000968124C01F0010100910F4921604FF046
:100F4000406161604021C4E902100901216149004A
:100F500061618900C4E906100901C4E9081020464E
:100F6000FFF7EEFA08B1FFF71AFA2C62A56338BD55
:100F70000000014044380240286402406C3C0020DC
:100F800070B5044690F83800012817D0012584F880
:100F90003850022084F839002068826822F07702F5
:100FA00022F47F4282600868502837D00DDC202868
:100FB00059D005DC88B3102841D151E0022070BD22
:100FC000302853D040283AD13FE060282ED07028F6
:100FD0000BD0B0F5805F03D0B0F5005F2FD110E0EB
:100FE0002068816821F0070115E0CB68D1E9012173
:100FF000206800F01DFB2168886840F07700886059
:101000001DE0CB68D1E90121206800F011FB2068C8
:10101000816841F48041816011E01EE0CA6849683E
:10102000206800F0B9FB5021206806E0CA684968D2
:10103000206800F0C2FB6021206800F003FB84F808
:101040003950002084F8380070BDCA6849682068AB
:1010500000F0A2FB40212068EFE700212068ECE7C8
:1010600010212068E9E720212068E6E73021206888
:10107000E3E7704710B586B0044614216846FFF7D1
:10108000F7F80E492068884216D10D480021026801
:1010900042F001020260006800F0010005904FF488
:1010A000807000900220CDE901010120CDE90310FC
:1010B00069460448FFF7FCFA06B010BD0000014085
:1010C000303802400000024070B5044690F8380005
:1010D0000D4601280DD0012684F83860022084F8DE
:1010E000390042B1042A18D0082A2AD00C2A4DD13E
:1010F00039E0022070BD206800F0ACFA20688169F8
:1011000041F0080181612068816921F00401816159
:10111000206881692A69114311E0206800F0C2FA51
:101120002068816941F4006181612068816921F44E
:1011300080618161206881692A6941EA02218161B7
:1011400024E0206800F0DAFA2068C16941F0080163
:10115000C1612068C16921F00401C1612068C169D1
:101160002A69114311E0206800F0F4FA2068C1698F
:1011700041F40061C1612068C16921F48061C161ED
:101180002068C1692A6941EA0221C16184F8396095
:10119000002084F8380070BD10B5040003D094F826
:1011A000390010B107E0012010BD002084F838009C
:1011B000204600F00CF8022084F83900211D206838
:1011C00000F0D6F9012084F83900002010BD7047E6
:1011D0007047000070B5044690F8390016460D4679
:1011E000022805D094F83900012805D10EB903B1C1
:1011F00070BD022084F839002C482D4935B1042DEA
:1012000013D0082D34D00C2D1ED140E0226AD063BB
:10121000206AC164226831463432206AFFF7FAF945
:101220002068C16841F400710DE0626AD063606AB1
:10123000C164226831463832606AFFF7EBF92068F2
:10124000C16841F48061C16001222946206800F034
:10125000BDF918492068884203D1416C41F400412E
:1012600041642068016841F001010160002070BD07
:10127000A26AD063A06AC164226831463C32A06A87
:10128000FFF7C8F92068C16841F40061DBE7E26A52
:10129000D063E06AC164226831464032E06AFFF7F9
:1012A000B9F92068C16841F48051CCE7E315000822
:1012B0002116000800000140FEE7000010B594B0C0
:1012C00000240E940F941094119412941C216846DB
:1012D0001394FEF7CDFF1C2107A8FEF7C9FF1E4897
:1012E0001C49C0E900147D21C0E902410461446148
:1012F000FFF7F7FD4FF480500E900EA91648FFF748
:101300003FFE1548FFF748FF129412A912481394A4
:10131000FFF7BFFD6020CDE900040294039404941C
:101320000594002269460C480694FFF7CDFE079409
:10133000089409944FF400500A94CDE90B4007A992
:1013400005480D94FFF778FD0348FFF793FE14B0AE
:1013500010BD000000000140AC380020FEE77047DF
:101360000907090E002806DA00F00F0000F1E0205E
:1013700080F8141D704700F1E02080F800147047D9
:10138000704700002D2005491A2341F64D4200BF49
:1013900021F81030401C9042FADB7047100000200A
:1013A000F8B50A460021ADF800100121422402EBF5
:1013B0004202254B1A2542E0BDF80070C6B2C7F1C3
:1013C000070701FA07F73E42BDF8006006EBC206C8
:1013D00003EB460602D0A6F86A4001E0A6F86A5080
:1013E000BDF80070C0F30726C7F1070701FA07F739
:1013F0003E42BDF8006006EBC20603EB460602D093
:10140000A6F85A4001E0A6F85A50BDF80060C0F3B3
:101410000747C6F1070C01FA0CF63742BDF8006029
:1014200006EBC20603EB460602D0A6F87A4001E0BE
:10143000A6F87A50BDF80060761CADF80060BDF8E3
:101440000060082EB8D3F8BD1000002078B505461E
:1014500000244FF4967604EB44002844A1B202889D
:10146000ADF8002080788DF802000098FFF798FF13
:10147000641CB442EFD378BD41F64D43024A0021CB
:101480000248FFF7A7BE000010000020AC38002083
:101490007047FFF7C9B9000030B593B034216846F2
:1014A000FEF7E6FE14210DA8FEF7E2FE194800251E
:1014B000016841F080510160006800F08050129096
:1014C0001548016841F4404101600068022400F4BD
:1014D0004040129001200390102004900094069444
:1014E0000820CDE907506420CDE909040420CDE9A6
:1014F0000B046846FFF7FAFA0DA90F2081E83100C6
:10150000E002CDE9100503210DA8FFF725FA13B07D
:1015100030BD0000403802400070004010480168B3
:1015200041F4700101600F48016841F00101016060
:101530000C4A00210832116002680B4B1A4002600D
:10154000031D0A4A1A60026822F4802202600548DC
:101550000C3001600249580680390860704700006D
:1015600088ED00E000380240FFFFF6FE1030002456
:1015700030B50268114B124C984201D0A04203D101
:1015800022F070054A682A43984207D0A04205D04D
:101590000C4CA04202D00C4CA04203D122F4407467
:1015A000CA68224302608A68C2620A6882629842FC
:1015B00001D1096901630121416130BD0000014091
:1015C000000C0040004001400048014010B50123DC
:1015D000046A8B409C430462036A8A40134303629B
:1015E00010BD10B5846B012184F83910226A824243
:1015F00001D121760EE0616A814201D1022008E02A
:10160000A16A814201D1042003E0E16A814201D153
:10161000082020762046FFF7DBFD0020207610BD55
:1016200010B5806B012180F83910FFF722FD10BD45
:1016300010B5846842EA032224F47F440A4322431B
:10164000826010BD826822F070020A4342F00701F6
:101650008160704730B5026A22F001020262026ABC
:101660004368846924F073050C682C4322F002055A
:101670008A682A430A4DA8420BD122F00805CA689D
:1016800023F440732A434D6922F004021D438B6901
:101690002B434360846149684163026230BD0000AE
:1016A0000000014030B5026A22F010020262026AB4
:1016B000436884690D6824F4E64444EA05248D688F
:1016C00022F0200242EA05120B4DA8420ED1CD684D
:1016D00022F0800242EA05124D6923F4406343EA96
:1016E00085038D6922F0400243EA850343608461EB
:1016F00049688163026230BD0000014030B5026A72
:1017000022F480720262036A4268C46923F400739F
:1017100024F073050C682C438D6843EA05230C4DB7
:10172000A8420ED1CD6823F4006343EA05234D6936
:1017300022F4405242EA05128D6923F4806342EAA2
:1017400005124260C4614968C163036230BD000094
:101750000000014030B5026A22F480520262046A3D
:101760004268C3690D6823F4E64343EA05238D68A4
:1017700024F4005444EA0534064DA84204D14D69CE
:1017800022F4804242EA85124260C36149680164E2
:10179000046230BD0000014010B5036A046A24F001
:1017A00001040462846924F0F00444EA021423F082
:1017B0000A020A438461026210BD10B5036A23F075
:1017C000100303628369046A23F4704343EA02321C
:1017D00024F0A00343EA01118261016210BDFEE71B
:1017E00002E008C8121F08C1002AFAD170477047EA
:1017F000002001E001C1121F002AFBD17047000048
:1018000008B5FFF719F8FFF747FE77484FF00009D2
:101810004C46016841F001010160016801F00101DD
:101820000091016841F48001016000684A4600F4BB
:101830008000009049463920FFF75CF83920FFF717
:101840004DF8FFF73BFDFFF79DFD68480094BDF89C
:10185000001020F83C1F9DF802108170BDF80010A8
:10186000A0F803109DF8021041710094BDF800101B
:10187000C1809DF8021001720326C6EB06105B4D75
:1018800087003C3500244FF4B47804E03C2C02D9A6
:10189000B4F5967F03D3AF71EF702F7012E0A4F10F
:1018A0007800782801D8484609E0A4F13D003B289B
:1018B00002D2C4F1780001E0A4F1F0007043A871F5
:1018C000E8702870A4F13C00782803D8EF712F71DC
:1018D0006F700EE0F02C01D3484607E03C2C02D29A
:1018E00004FB06F002E0C4F1F0007043E8712871D7
:1018F0006870A4F1B400782803D82F726F71AF70AC
:101900000FE0782C01D8484608E0A4F179003B2884
:1019100001D2401C01E0C4F5B470704328726871B4
:10192000A87032483C30FFF791FDFFF7A5FD1E205F
:10193000FEF7ACFE641CA4B24445A7D3DFF8B08028
:1019400000244FF4957A00BFD8F80000009004EB13
:1019500044002844BDF8002002809DF802208270D7
:10196000D8F804200092BDF80020A0F803209DF8CC
:1019700002204271D8F808100091BDF80010C18013
:101980009DF80210017244B1CDF80090BDF800102E
:1019900020F8031D9DF80210817014483C30FFF7B9
:1019A00055FDFFF769FD6420FEF770FE641CA4B2CC
:1019B0005445C9D30F49CDF80090BDF8002021F857
:1019C000372F9DF802208A70CDF80090BDF80020D6
:1019D000A1F803209DF802204A71BDF80000C880DC
:1019E0009DF8020008724DE730380240AC38002004
:1019F000F81900082C3C00203C000000003C0000CE
:101A000000003C0006101600061016000000000042
:101A10000000000102030406070809003C1A000840
:101A20000000002010000000E01700084C1A000819
:101A300010000020C0400000F01700080100000066
:0C1A400010000000000000000024F40072
:04000005080001C925
:00000001FF
